:040000006F108006F7
:100004000000000000000000E2030000E60300001E
:100014000000000066100000000000000000000066
:1000240066100000661000000000000000000000E0
:10003400300E000000000000661000000000000008
:1000440066100000661000006610000066100000D4
:1000540066100000661000006610000066100000C4
:1000640066100000661000006610000066100000B4
:1000740066100000661000006610000066100000A4
:100084006610000066100000661000006610000094
:100094006610000066100000661000006610000084
:1000A4006610000066100000661000006610000074
:1000B400661000003C060000661000006610000098
:1000C4006610000066100000661000006610000054
:1000D40066100000661000004C0C00002E090000A1
:1000E4006610000066100000661000006610000034
:1000F4006610000066100000661000006610000024
:10010400661000006610000066100000FE22000069
:100114006610000066100000661000006610000003
:1001240066100000661000006610000066100000F3
:1001340066100000661000006610000066100000E3
:1001440066100000661000006610000066100000D3
:1001540066100000661000006610000078080000B9
:10016400C40800006610000066100000661000005D
:1001740066100000661000006610000066100000A3
:100184006610000066100000661000006610000093
:100194006610000066100000661000006610000083
:1001A400000000000000000000000000000000004B
:0C01B4000000000000000000000000003F
:1001C000397101436EC619A0397141536AC866CAB4
:1001D00062CC5ECE19A0397101535AD056D252D496
:1001E0004ED64AD826DA22DC06DE3301614082820E
:1001F00041114AC026C222C406C68282B24D4101C4
:10020000024D924C224CB24B4101024B924A224A7F
:10021000B2494101024992442244B24041018280E4
:100220003D432A876373C3029377F700BDEFADE5C3
:10023000937606FF3D8ABA960CC34CC30CC74CC7D5
:100240004107E36BD7FE11E28280B306C3408A0602
:100250009702000096966780A6002307B700A306C2
:10026000B7002306B700A305B7002305B700A30412
:10027000B7002304B700A303B7002303B700A3020A
:10028000B7002302B700A301B7002301B700A30002
:10029000B7002300B700828093F5F50F9396850091
:1002A000D58D93960501D58D61B79396270097025A
:1002B000000096968682E78086FA9680C1171D8F89
:1002C0003E96E374C3F8A5B73367B500FD530D8BB5
:1002D00079E7B7877F7F9387F7F710419441B3722F
:1002E000F6003363F600BE92B3E262006395720CCF
:1002F0006318D6065041D441B372F6003363F6005A
:10030000BE92B3E262006396720A631BD604104584
:100310009445B372F6003363F600BE92B3E2620016
:10032000639F7208631ED6025045D445B372F6002F
:100330003363F600BE92B3E2620063987208631101
:10034000D60210499449B372F6003363F600BE92A8
:10035000B3E26200639172085105D105E30FD6F64E
:100360001317060193970601631CF7001357060144
:1003700093D706013305F7409375F50F91E9828015
:100380004183C1833305F7409375F50F91E1828076
:100390001377F70F93F7F70F3305F740828010219B
:1003A0009421050585056313D60075FA3305D640FB
:1003B000828011059105E314D6FE01458280210556
:1003C000A105E31ED6FC014582803105B105E31885
:1003D000D6FC014582804105C105E312D6FC0145EA
:1003E00082807300203001A0EFF29FE003C5B1804E
:1003F000EF20C07A05B5EFF2BFDF83C5218511710B
:10040000C9C503C73185A94763F1E708138581880A
:10041000EF20D01EB75500009385852B138581886A
:10042000EF30200BB755000030009385052C02C437
:10043000EF20F074B75500009385C52C1385818893
:10044000EF302009B755000070009385852D02C656
:10045000EF20F072B7550000130680079385852EB4
:100460000808EF20F051A2471D4713842185FD178E
:10047000636BF70015678A0713074721BA979C43F8
:100480008287A385018023000400116161B30547C1
:10049000A385E180CDBFB247E1669386066AB3C605
:1004A000D70229471386C180A1451385C180B3E6D1
:1004B000E60214A2896693860671B3C6D702B3E634
:1004C000E60214B29306803EB3C6D702B3E6E60254
:1004D00034A293064006B3C6D702B3E6E60234B2AE
:1004E000B3C6E702B3E7E702B3E6E6025CB254A2A2
:1004F0001946EF10D027B7550000130680079385E3
:1005000005362801EF20D047930570072801EF201A
:10051000300395BF0886EF10A03EB75500001306C4
:1005200080079385853DF1BF930570070808C5B71F
:10053000EFF27FCA03C4318303C741836307870493
:100540004167011793062004130600079305D002A4
:1005500041459389418393843183EF20801C982007
:100560009D476314F70099479CA0C166130AF00FDA
:10057000954A138B06FE138906807D141374F40FBD
:10058000631344059C202380F9009384518403C79E
:1005900041849C2013844184630EF70041677D17DA
:1005A000930600021306000881450145EF206017FD
:1005B0001C209CA01C2005476387E7048DC70947C2
:1005C000638FE70499B1E3EA8AFA131544000148FE
:1005D000C1475A87CA861306A0029305D002510567
:1005E000EF20003559BFC16637D600001387F6FFEC
:1005F0000148C1479386068013060645814501459B
:10060000EF20802EC1B7C16637D600001387F6FFF2
:100610000148C1479386068013060647C5B703D62F
:10062000A18141679307F7FF414813070780894677
:10063000C14513052003EF20003E69B73705004090
:10064000854513050540EF00907C2DC1938781857A
:1006500098439386B180050798C393875185982363
:10066000050798A3938731859823050798A39C22B3
:1006700089EF138701851E230566130686388507D3
:10068000C207C183638DC7021EA3938691839822FC
:100690008D47631DF7001387E1841E231306803EF8
:1006A0008507C207C1836386C7021EA337050040C2
:1006B000854513050540EF0010777300203085470E
:1006C0009CA209452310070023820184EF10C01E5D
:1006D0006DBF231007001387A1811E23FD17C207DA
:1006E000C183E1F7BD471EA3238006002382018456
:1006F00075BFEFF25FAEB70400200144938404009D
:10070000314A83C7C1846363F40001B6B30744036D
:1007100083A68185A6979847D04332976375D70003
:1007200094C79C43829705041374F40FD9BFEFF26A
:100730003FAC0945EF001029EF005000716513052B
:100740000520EF205017EF20F00DEF107006EF207E
:10075000403C0545EF2080444164EF10D050130722
:10076000F4FF9306F0071306F00781450145EF10EB
:10077000507B37D600000148C1471307F4FF9306AA
:1007800004801306C648930520037945EF20C01561
:1007900081441309048013960401418232854A87FB
:1007A0009306000893054006EF10507D2945EF2081
:1007B000300D850493070008E39FF4FC37D6000052
:1007C0000148C1471307F4FF930604801306C64986
:1007D000930520037945EF2020111305401FEF20DA
:1007E000300A15671307074593060008130600082B
:1007F00081450145EF20602B37D600000148C147F5
:100800001307F4FF9306048013060645814501454E
:10081000EF20800D9306200413060007130704FE43
:100820009305D0024145EF10D06F9305F0051305F5
:10083000803EEF20403819472386E184EF100007FF
:100840005145EF10E00B2945EF209003EF20606B3E
:10085000EF00F075EF10600F2945EF207002EF10E8
:10086000800F372500001305C5CAEF20603A0945FF
:10087000EF108004BD3DFDBF411122C6372400406A
:100880009305505213050480EF00706D05C11305E8
:100890000480A3890184EF00B06A138721851423A3
:1008A00093878188B697850688A314A337250040CF
:1008B0009305505213050580EF00306E324441011C
:1008C0007300203037250040411193055052130525
:1008D00005C022C626C4EF0090680DCD238D01828D
:1008E00083C6518529479384518513844185637458
:1008F000D7002300040037250040130505C0EF0092
:100900003064182093878198BA97050788A318A0A8
:10091000238004003725004093055052130505C07D
:10092000EF00B0673244A24441017300203041110E
:1009300022C6375400409305505213050480EF003F
:10094000106209C513050480EF00905F3755004021
:100950009305505213050580EF0030643244410185
:100960007300203037170A0A938741801307A7A026
:1009700098C305671307A7A0DAA3A3890182828021
:100980007D161376F60F1307F00F6314E600054586
:100990008280B287B306F500AE9794229C237D1621
:1009A0001376F60FE383F6FE01458280814713F745
:1009B000F70F6363C70082803307F5001423338782
:1009C000F500850714A3E5B7EFF29F82EF1060658D
:1009D00093865183A38BA1829C2213C7F7FF88A221
:1009E000C98F83C69183A98F698F93842183238BB9
:1009F000F18298A08D476380F60415CF0545EF007E
:100A0000B06B9C203D47FD1793F7F70F6365F70226
:100A100015678A0713074723BA979C43138491836A
:100A2000828713873183142393874180B6970546C5
:100A300090A3850614A36FF0EFFD13873183142371
:100A400093874180B6970946E5B71387318314230E
:100A500093874180B6970D46E1BF938781839823A2
:100A600079FB054798A31945EF00106523000400A2
:100A7000D53DD1B713873183142393874180B6972F
:100A800011467DB713873183142393874180B6972E
:100A9000154679BF13873183142393874180B69716
:100AA000194679B793878183982351F7154798A3FF
:100AB00049455DBF13873183142393874180B697DF
:100AC0001D46BDB713873183142393874180B697A2
:100AD0002146B9BF13873183142393874180B6978A
:100AE0002546B9B7938781839823E31607F40D470A
:100AF00098A33545EF00505CA5BFAD3513848183C5
:100B000018209947E319F7F2EF003058230004004A
:100B10001DB713873183142393874180B6972380B1
:100B2000070001BF138731831C23E38607F0FD17FD
:100B300093F7F70F1CA313874180BA97294798A30F
:100B4000DDBD83C78183154793848183E365F7EE19
:100B500015678A0713074727BA979C438287194668
:100B60009385C18013854180213D19C905470D45F5
:100B7000A38501802382E184EF001054E53379B727
:100B80001145EF007053F93B1C200D4715458507B3
:100B900093F7F70F1CA0E390E7EAEF00F051094745
:100BA0002382E18449BD19469385418113854180A3
:100BB000C13B09C589479CA01D452DBF2545EF00B8
:100BC000B04F1C200D47850793F7F70F1CA0E39447
:100BD000E7E62945D9B719469385C1801385418039
:100BE000F1332145EF00504D2380040051B51946E3
:100BF0009385418113854180613369D191479CA0E0
:100C00003945CDBD194693854181138541808D3B82
:100C100055D599479CA04D45F1BDEFF2CFDB03C9F7
:100C2000C1839384818701446315890001456FF076
:100C3000CFDDA6851146138501849933910409E51A
:100C400005041374F40FCDB70545D5B7411122C67D
:100C500037440040930550521305044026C44AC24D
:100C6000EF00F02F39CD13050440EF00702D03C7BE
:100C7000B183A9461375F50F9387B18363E3E60447
:100C800095660A079386C628369718430287114748
:100C90006319E502054798A32DA031476311E502CA
:100CA0000947D5BF0947631CE5000D47EDB713079A
:100CB00000036316E5001147F9BF154769DD23807E
:100CC0000700374500409305505213050540EF00DB
:100CD000D02C3244A2441249410173002030114704
:100CE000E31FE5FC194745BF1D4755D5C9BF238004
:100CF000A18421474DB7A380A184254769BF2381E3
:100D0000A184294749BF2380070083C78183938635
:100D10000184A8B23A899384818381EBFD3D15CD8E
:100D20002D45EF007039A385018098209147E31A83
:100D3000F7F81384C1831C20938581878A07BE95A9
:100D40001146138501849D313D45EF00F0361C208E
:100D50002380040085071CA0ADB73145EF00D035D6
:100D6000E9B7EFF2EFC80547238DE1821384A18331
:100D70001305800CEF20C0301C20FDFB6FF08FC9E5
:100D8000EFF20FC73715014089451305058015217E
:100D90002388A1829387118398236305A70888A3DA
:100DA00051C1938481839C201947639CE706EF001F
:100DB000D020453F0545EF0070226537EF00F01F5A
:100DC0004D37094537040020EF0050211304044A31
:100DD000493FEF00F02371370820EF0090251C20D9
:100DE00085071CA0BD3F5545EF00102D2380040052
:100DF000EF00B01CBD370945EF00501E9D37EF00D6
:100E0000B026853703C751999307200363FEE70097
:100E10004145EF00702AA385018005472382E184C4
:100E200011A0F9D76FF00FBF4545EF00F028DDBFE7
:100E3000938781849843050798C3828003A58184A2
:100E40008280B71702409843B706FFF84111136735
:100E5000170098C3D84337060200758FD8C398434C
:100E6000B706F7FEFD16758F98C39843B706FCFFCB
:100E7000FD16758F98C3D843B70681FFFD16758F91
:100E8000D8C39843B70600ECFD16758F98C3370793
:100E9000FF0098C723A6070202C402C69843C16692
:100EA000558F98C3B716024005679C42F18F3EC626
:100EB000A24785073EC4B24781E7A247E397E7FE12
:100EC000B71702409C431397E7006357070685470F
:100ED0003EC632478547631FF704B7170240D84321
:100EE000B706C1FFFD16D8C3D843D8C3D84313678C
:100EF0000740D8C3D843758FD8C3D843B706290055
:100F0000558FD8C39843B7060001558F98C39843AF
:100F100093166700E3DD06FED843B7160240719BC7
:100F2000D8C3D84313672700D8C32147DC42B18B0D
:100F3000E39EE7FE4101828002C661BFB716024010
:100F4000D8421146318B9387C1816305C700214682
:100F50006308C70237177A001307072098C33717AB
:100F60000240584311839376F70037070020130798
:100F700087043697142398433357D70098C3828049
:100F8000D842D442416649833D8BF18E1306270037
:100F900015CF3D47630FE6024147630FE602454721
:100FA00081456313E6004146A1E23747024003272B
:100FB0000780418B0DC737177A00130707203306C8
:100FC000C70290C3C9DD9843058349BF814549469F
:100FD000E1BF85453546C9BF81453D46F1B7371765
:100FE0003D0013070790E1BF37150240585593168F
:100FF000F700585563DF060411833D8B93061700F5
:1010000037177A00130707203357D70298C3545570
:10101000A182BD8A8DE295463307D702058398C326
:1010200037170240585794433D8B050733D7E602E4
:1010300098C3984369B705456394A600E546E9BFA0
:101040003D456396A600D1463387E602C9BF8906AF
:10105000E5BF3D8B9306170037177A00130707206B
:101060003357D702F1B701A097010020938181C3C4
:1010700017710020130101F917F50000130585927F
:1010800097F5FF1F938505F81386018363FAC50062
:101090008322050023A0550011059105E3EAC5FE52
:1010A00013850183938501BA6377B500232005007A
:1010B0001105E36DB5FEFD42739002BCAD42739025
:1010C0004280B7620000938282087390023097F2E8
:1010D000FFFF938262F393E2320073905230EFF09D
:1010E0005FD697F2FFFF9382C2647390123473004D
:1010F00020309C4513F7070113F8F70001C7D841CA
:101100003368E8008E2113F7F50F39C31841814683
:10111000854E3D4F930F800293028004214E3396FB
:10112000DE00B3F8C500631116039398260033134D
:101130001F011343F3FF3377E300B318180133E7BC
:10114000E800639FF70550C98506E39AC6FD18C1FC
:101150001307F00F6375B70454412146854E3D4F88
:10116000930F800293028004414EB398CE0033F770
:1011700015016392E8021317260001173313EF00DD
:101180001343F3FFB376D3003317E800D98E639D82
:10119000F701232A15010506E319C6FD54C1828013
:1011A000E39457FA10C94DB7E39757FE232815016A
:1011B000DDB708456D8D3335A00082800CC9828073
:1011C0004CC9828023AEA18482809387C1859443D9
:1011D000182181E63C21920721A894430546639F8C
:1011E000C6023C21103192076314D60093E707F83A
:1011F000B7E600E093F7F70FBA962380F6408546EE
:10120000935757003397E6005441A5C293870704CC
:101210008A07B7E600E0B69798C382808C43894678
:101220006391D50214313C216365D6008A06B697D6
:101230005DB79386E6038A06B69793F7F70F920792
:1012400075B790438D46631CD60014313C2163640E
:10125000D6008606E9BF9386C6078606F1BF94438B
:101260009147E39EF6F81C31BDB7938707064DB74B
:10127000371702405C439146B18B6385D700A14686
:101280006382D706B7177A00938707201CC13716E9
:1012900002405C4237070020130787059183BD8B0E
:1012A000BA9794231C41B3D7D7005CC15442A182A2
:1012B0009D8ABA969422B3D6D70014C55442AD8203
:1012C0009D8A36971823B3D7E7005CC55842398307
:1012D000937637001387018236971823B3D7E70236
:1012E0001CC982805C435843C166C983758FB7F6B9
:1012F000FF1F83A6C670BD8B89071396160163482E
:101300000600C54601466392D702C94739A88946F7
:10131000638FD702BD46638ED702C146638ED70264
:10132000C54601466393D700C1471DEF37470240CA
:1013300003270780418B05C737177A00130707205B
:10134000B307F7021CC121D61C41858381B7014632
:101350006DBF0546B547D1BF0146BD47F9B7371741
:101360003D0013070790E9BFB7150240D855931603
:10137000F700D85563DF060411833D8B93061700F1
:1013800037177A00130707203357D70218C1D455EF
:10139000A182BD8A8DE295463307D702058318C125
:1013A00037170240585714413D8B050733D7E602E3
:1013B00018C1184171B785456394B600E546E9BF89
:1013C000BD456396B600D1463387E602C9BF89069C
:1013D000E5BF3D8B9306170037177A0013070720E8
:1013E0003357D702F1B799C5371702401C4F5D8DAF
:1013F00008CF8280B7170240984F1345F5FF798DCB
:1014000088CF828099C5371702405C4F5D8D48CFE9
:101410008280B7170240D84F1345F5FF798DC8CFAA
:1014200082801A218D6793870704B6217D8F9E21C4
:10143000D58FD621D58FF621D58F9625D58FB62578
:10144000D58FD625D58FF625D58FD98F1EA15A2DAC
:10145000FD779387F77FF98F5EAD9E291EA9828065
:101460001E2189C593E707041EA18280C207C1839C
:1014700093F7F7FBC207C183C5BF4EA582804A25FB
:1014800082800A256D8D3335A00082801E2137377A
:101490000140930607C0C207C1836300D504B706A5
:1014A0000040630CD502938606406308D502B71648
:1014B0000040138606806302C502938606C0630E51
:1014C000D50013070740630AE5003757014093062C
:1014D00007C06304D5006316E500BA2193F7F7F857
:1014E000D98F37170040630CE500130707406308E6
:1014F000E50093F7F7CFFA21C207C183D98F1EA168
:10150000DE215EB59E211EB5B7370140138707C0A7
:10151000630EE50093870740630AF500B757014063
:10152000138707C06304E5006314F5009C251EB90A
:1015300085475EA982801E31922103D82500C2070B
:10154000C183F99BC207C1831EB11E3156211A2DDA
:10155000C207C183420741831377C7F8518F922591
:10156000F59BC20633660601D18F3736014013085A
:1015700006C0C182630E050113060640630AC5005A
:1015800037560140130806C0630405016310C50205
:10159000B225DD9B03D8E500D18FD221ED9B93F6D8
:1015A000F6CFD18FD22533660601D18E56A11AAD62
:1015B000FA215AB91EB182801E2189C593E717000E
:1015C0001EA18280C207C183F99BC207C183CDBF20
:1015D0005E2501C6DD8D4EA5828093C5F5FFFD8D8C
:1015E000DDBF1E2189C593E707081EA18280C207BF
:1015F000C18393F7F7F7C207C183C5BF1E2DC2078A
:10160000C183DD9BDD8D0EAD82804EB982801E29A7
:101610004A25ED8F4205418189C76D8D3335A00084
:1016200082800145828093C5F5FFC205C1810EA964
:101630008280EFE2FFBB1629F577FD17F58FF621C3
:10164000DA257971D58F1EA95625FD779387379FA7
:10165000F58FD6212A842EC6D58F9625D58FB6250F
:10166000D58F5EA55E29C207C18393F7F7CFD98FC7
:101670005EA96808F53EB747014093870780B245E9
:10168000631AF404A25756246547B387E702C206DB
:10169000C186984163D20604060752244206B3D796
:1016A000E702130740064186B3D6E702B3F7E70225
:1016B0009206635506028E0793872703B3D7E70286
:1016C00013F77700B367D700C207C1831EA4456133
:1016D0006FE05FB4925745BF0A07C1B7920793877F
:1016E0002703B3D7E702BD8BD58FF9BF91C55E2520
:1016F0000967D98F5EA582805A25F977FD17F98F82
:10170000D5BF13F7F50F85471583B395B700631958
:10171000F7009307C500984301CED98D8CC3828012
:10172000894693074501E318D7FE93070501E5B7FE
:1017300093C5F5FFF98DDDB793F5F51F4EA18280B6
:101740004A211375F51F82800A216D8D3335A00063
:10175000828093C5F5FFC205C1810EA1828013F777
:10176000F50F85461583B397B6006311D7025A2546
:10177000F98F1A2101454207418381CB0545A1819B
:10178000B315B5006D8F3335E00082808946631450
:10179000D7001A29F1BF5A29E1BFA1818547B39724
:1017A000B70093C7F7FFC207C1831EA18280EFE293
:1017B0003FA4EF10005C6FE0FFA5EFE27FA34111B3
:1017C000956531469385C51D4800EF10701B480094
:1017D000B145EF10C06541016FE0DFA3EFE25FA10B
:1017E000C17741119387F71E3EC0B70702004885B5
:1017F000FD171D053EC24886930740200A85B54562
:101800007C84A3050100EF10806241016FE09FA07E
:10181000EFE21F9E4111956531469385851E480074
:10182000EF1010164800B145EF10606041016FE005
:101830007F9EEFE2FF9BC17741119387F71E3EC069
:101840004886B70702003D051387F7FF488793874F
:1018500067600A85BD453AC23EC4A3060100EF1089
:10186000005D41016FE01F9BEFE29F9801119565BC
:1018700045469385451F6800EF1090106800C545E8
:10188000EF10E05A05616FE0FF98EFE27F9641119B
:1018900095653146938585204800EF10700E48000D
:1018A000B145EF10C05841016FE0DF96EFE25F9461
:1018B000EF10C05B6FE01F96EFE29F93B707410008
:1018C00041119387E7573EC44886BD5713454504E9
:1018D000B7540040C8865C870144938404801D4946
:1018E0003C00A2978C232685813D93050004268524
:1018F000A13D65DD0504E31524FF41016FE09F91E3
:10190000EFE21F8F41119307E0477C849307100398
:101910005C85C885BD5713455503B75400404886BC
:10192000DC8601449384048019493C00A2978C23EF
:1019300026851935930500042685393565DD0504AE
:10194000E31524FF41016FE0FF8CEFE27F8AEF1087
:1019500080366FE03F8CEFE2BF8937050020A1455C
:1019600013058506EF10C03D1305803EEF10407152
:1019700037050020B54513054507EF10603C1305FA
:10198000803EEF10E06F37050020BD451305450888
:10199000EF10003B1305803EEF10806E37050020EE
:1019A000F14513054509EF10A0391305803EEF10EE
:1019B000206D1305803EEF10A06C370400209305C6
:1019C00090081305440BEF10A0371305803EEF106D
:1019D000206B930590081305440BEF106036130538
:1019E000803EEF10E0691305803EEF106069370517
:1019F00000209305100513050514EF10603413053E
:101A0000803EEF10E0671305803EEF1060673705FA
:101A100000209305900313054519EF10603213055C
:101A2000803EEF10E0651305803EEF1060653705DE
:101A30000020930500041305051DEF106030130509
:101A4000803EEF10E0631305803EEF1060633705C2
:101A500000209305B00B13054521EF10602E1305F0
:101A6000803EEF10E0611305803EEF1060616FE093
:101A70006FFAEFE24FF6AE8993052002B284EF10C1
:101A80003020814729C913041500930520022285BF
:101A9000EF10101F2A8981471DCDB7D5000093850F
:101AA000C54D2285EF10F022814715C56365A90257
:101AB0002D051306C002FD14B386F90063792501D4
:101AC0000307050009C76304C70063C997002380A3
:101AD0000600B327F0003E856FE02FF3050598A2BE
:101AE0008507D9BFEFE2CFF02E84B7D500004111B2
:101AF0009385C54A32C6EF10D01D31CD32469307CB
:101B0000F5009306000203870700759B6300D70466
:101B10000145930520021308C0029308D0077D16E3
:101B20003387A70003070700B306A40009CB6308A7
:101B3000B7006306070163041701634BC5002380E8
:101B400006003325A00041016FE0CFEC850765BF9B
:101B500098A20505F1B70145FDB7EFE26FE9011164
:101B6000B28437D60000AE862A841306C64B93058E
:101B700000020A85EF10E0798A852285EF10701542
:101B8000814705C92A840A85EF1010112A9413078A
:101B9000000283070400F59B6381E702B7D50000CC
:101BA00011469385454C2285EF10301009E9854791
:101BB0009CC03E8505616FE0EFE50504D9BFB7D550
:101BC000000015469385C54C2285EF10100E814705
:101BD0006DF123A004008547E9BFEFE26FE1797161
:101BE000B28437D600002A84AE861306C64B93050E
:101BF00000020808EF10E0710C082285EF10700D4C
:101C000009E5014545616FE0EFE02A840808EF101F
:101C1000B00822951307000283070500F59B638037
:101C2000E702B755000070009385452E02C6EF10FD
:101C300000758547E317F5FCB2479CC0E1B7050581
:101C4000E1BFEFE2EFDA0111328937D60000AA8452
:101C500036841306464DAE860A8593050002EF10C2
:101C6000406B8A852685EF10D0061DCDAA840A8593
:101C7000EF1090028147130620027D143307F50010
:101C8000269703070700B306F90009C76304C700D6
:101C900063C98700238006003325F00005616FE0EB
:101CA0006FD798A28507D9BF0145CDBFEFE24FD4CA
:101CB0000D71AA841306000481450810EFE04FD689
:101CC0001306000281450A85EFE08FD51306000454
:101CD0000C102685793B11E937D500001305854F97
:101CE000EF10606235616FE0EFD2130600028A8563
:101CF0002685CD3B11E537D5000013050551CDB73D
:101D0000B7D500009385C5520A85EFE0EFDB2A8442
:101D100025E5B7D50000901093858553268582D0A0
:101D20006D3D19E537D8000005441308084F01A898
:101D30000655EF00B05D37D800001308884E37D63F
:101D400000008A8722871410130606579305001097
:101D50008810EF10005C8810EF1000749375F50F79
:101D60008810EF00F07D37D500009305007D130546
:101D70000561EF102022BDB7B7D50000938505544B
:101D80000A85EFE06FD42A8411EDB7D500009010DA
:101D900093858554268582D0C93349D50655EF00F1
:101DA000105751BFB7D50000938545550A85EFE020
:101DB000AFD12A8425F91306000281458810EFE08F
:101DC0002FC6B7D5000093060002901093854556A4
:101DD0002685853D21D98810EF009053A9BFEFE2F9
:101DE0002FC1372401401305048093050002EFF052
:101DF000EFBC9305000413050480EFF02FBC1D45D4
:101E0000EF10A0249305000213050480EFF04FBBF0
:101E10001D45EF1080239305000413050480EFF0A7
:101E20002FBA1D45EF1060226FE0CFBEEFE24FBC2E
:101E3000372401401305048093050002EFF04FB8EA
:101E40009305000413050480EFF04FB71D45EF1014
:101E5000C01F9305000213050480EFF02FB61D4547
:101E6000EF10A01E9305000413050480EFF04FB59A
:101E70001D45EF10801D6FE0EFB9EFE26FB737241B
:101E800001401305048093050002EFF06FB3930542
:101E9000000413050480EFF06FB21D45EF10E01A47
:101EA0009305000413050480EFF08FB11D45EF107A
:101EB000C0196FE02FB6EFE2AFB33724014013052E
:101EC000048093050002EFF06FAF93050004130543
:101ED0000480EFF0AFAE1D45EF102017930500040E
:101EE00013050480EFF0CFAD1D45EF1000166FE035
:101EF0006FB2EFE2EFAF3724014013050480930582
:101F00000002EFF0AFAB9305000413050480EFF07F
:101F1000EFAA1D45EF10601393050002130504801E
:101F2000EFF02FA9AA841D45EF102012930500049D
:101F300013050480EFF0CFA81D45EF1000111385A5
:101F4000F4FF3335A0006FE0EFACEFE26FAA2A890F
:101F50000144A144B317890093F7070899C7A13F2B
:101F60000504E31994FE6FE0EFAA013FD5BFEFE24D
:101F70002FA84111B2842EC62A84EFF05FE6130524
:101F8000600AE137BD37B245A2942E857D3F953773
:101F900063169400613D41016FE0CFA7050403453E
:101FA000F4FF6537B9371305800CEF10000ACDB781
:101FB000EFE20FA44111854513050007EFF0AFC212
:101FC0000564930704A07C8237150140C1473EC6D3
:101FD0004C008D47130505403EC4B7240140EFF087
:101FE0004F91E9774C00138504807C82EFF06F906D
:101FF000130404A8930780044C00138504806082B6
:102000003EC6EFF00F8F930700024C0037150140DA
:102010007C82EFF00F8E2945EF10800641016FE0C2
:102020006F9FEFE2EF9C0564B714014093050480B5
:1020300013850440EFF0CF981385044093050020EA
:10204000B7240140EFF08F97A16513850480EFF06E
:10205000EF96896513850480EFF04F969305048011
:1020600013850480EFF0EF941334150093050020DE
:1020700013850480EFF0EF930A0411E10D44372536
:1020800001409305000813050580EFF08F9211E1E0
:1020900009449305000237150140EFF08F9111E1DB
:1020A0000544B71401400569138504409305098070
:1020B000EFF0CF901385044093050020EFF04F9090
:1020C000B7240140A16513850480EFF02F8F896547
:1020D00013850480EFF08F8E9305098013850480AB
:1020E000EFF02F8D11E121443725014093050020A9
:1020F00013050580EFF0EF8B11E11D4437250140FA
:102100009305000813050580EFF0AF8A11E119442B
:102110009305000237150140EFF0AF8911E1154436
:10212000B714014005691385044093050980EFF059
:10213000EF881385044093050020EFF02F88B72423
:102140000140A16513850480EFF08F8789651385B1
:102150000480EFF0AF869305098013850480EFF0CB
:102160004F8511E1314437250140930500201305C7
:102170000580EFF00F8411E12D44372501409305D0
:10218000000813050580EFF0CF8211E12944930583
:10219000000237150140EFF0CF8111E12544B7145B
:1021A000014005691385044093050980EFF00F8114
:1021B0001385044093050020EFF04F80B7240140C1
:1021C000A16513850480EFE07FFF89651385048096
:1021D000EFE01FFF9305098013850480EFE07FFD8A
:1021E00011E1414437250140930500201305058086
:1021F000EFE03FFC11E13D44372501409305000825
:1022000013050580EFE0FFFA11E139449305000260
:1022100037150140EFE0FFF911E1354422856FD019
:102220007FFFEFD25FFB011185451305C002EFF080
:102230008F9B8545216537140140EFF0AF9C9307D4
:10224000800341498D448A85130504407C804AC43B
:1022500026C2EFE01FEA13050440A145EFE01FF698
:1022600013050440C145EFE07FF5130504409305D5
:102270000002EFE0BFF4E1778A85130504807C80DB
:102280004AC426C2EFE0FFE613050480A165EFE033
:10229000FFF2A147E1498A85130504C07C804EC442
:1022A00026C2EFE01FE58A85130504C02310210133
:1022B0004AC4EFE01FE4930700028A85130504C0B7
:1022C0007C804EC426C2EFE0DFE2B70704013EC6C1
:1022D000B7070002374400403ECAA1473ECC6C001D
:1022E0009D47130504C0FC8602C8EFF08F93854517
:1022F000130504C0EFF0CF9605616FD01FF1730096
:102300002030EFD25FEDB74400402A891304900CCF
:10231000938904C089454E85EFF0AF9605C9CA85FB
:10232000138504C0B7440040EFF02F951304900CC0
:10233000138904C085454A85EFF0AF9419CD138504
:1023400004C0EFF0CF931375F50F31A07D14137413
:10235000F40F69F001456FD05FEB7D141374F40F37
:1023600071F8CDBFEFD2DFE837140140AA84C14530
:1023700013050440EFE0DFE4A14513050440EFE05E
:10238000FFE32685EFF0FFF7C14513050440EFE0BA
:10239000FFE26FD03FE8EFD2BFE537140140AA84D7
:1023A000C14513050440EFE0BFE1A145130504401A
:1023B000EFE0DFE013D58400EFF0BFF413F5F40F86
:1023C000EFF03FF4C14513050440EFE03FDF6FD06D
:1023D0007FE4EFD2FFE137140140AA84C145130521
:1023E0000440EFE0FFDDA14513050440EFE05FDDB1
:1023F0002685EFF01FF1C14513050440EFE01FDC17
:102400006FD05FE1EFD2DFDE41112A841305A00215
:1024100036C22EC632C4EFF0DFFB1305240042059E
:102420004181EFF05FF7224609061315060141814D
:10243000EFF07FF61305B002EFF0BFF9B2458D055E
:10244000139505014181EFF01FF592468D06139516
:1024500006014181EFF03FF41305C002EFF07FF772
:1024600041016FD03FDBEFD2BFD8EFF09FDB3714D5
:102470000140C145130504C0EFE09FD41305400699
:10248000EF001040C145130504C0EFE03FD3130532
:102490004006EF00F03E9305000213050440EFE014
:1024A000FFD113054006EF00B03D4545EFF07FF248
:1024B00013058007EF00D03C1305100BEFF07FF100
:1024C0001545EFF03FEA1305C003EFF0BFE9130530
:1024D000C003EFF03FE91305200BEFF09FEF154528
:1024E000EFF05FE81305C003EFF0DFE71305C0036B
:1024F000EFF05FE71305300BEFF0BFED1545EFF0A0
:102500007FE61305C003EFF0FFE51305C003EFF00E
:102510007FE51545EFF01FE51305C003EFF09FE4DD
:102520001305C003EFF01FE41305400BEFF07FEA43
:102530000D45EFF03FE31305A003EFF09FE91545CC
:10254000EFF05FE21305000CEFF0BFE81305200A7F
:10255000EFF05FE10945EFF0FFE013054008EFF011
:102560007FE01305100CEFF0DFE61305500CEFF0E1
:102570007FDF1305200CEFF0DFE53545EFF09FDE40
:102580000145EFF03FDE1305300CEFF09FE413053B
:10259000D008EFF03FDD1305A002EFF0BFDC13051C
:1025A000400CEFF01FE31305D008EFF0BFDB13057D
:1025B000E00EEFF03FDB1305500CEFF09FE12945F3
:1025C000EFF05FDA13056003EFF0BFE01305800C56
:1025D000EFF05FD91305000EEFF0BFDF4945EFF0D4
:1025E0007FD87145EFF01FD84145EFF0BFD7614567
:1025F000EFF05FD713053003EFF0DFD61305C0020D
:10260000EFF05FD613055002EFF0DFD5130580021F
:10261000EFF05FD513058002EFF0DFD413057002F1
:10262000EFF05FD41305F002EFF0DFD31305C00322
:10263000EFF05FD30145EFF0FFD20D45EFF09FD2F1
:102640000D45EFF03FD24145EFF0DFD11305100EFD
:10265000EFF03FD84945EFF0FFD07145EFF09FD044
:102660004145EFF03FD06145EFF0DFCF1305D002D9
:10267000EFF05FCF13058002EFF0DFCE13053002DD
:10268000EFF05FCE13058002EFF0DFCD130580027F
:10269000EFF05FCD13056002EFF0DFCC1305F00221
:1026A000EFF05FCC1305B003EFF0DFCB0145EFF0A7
:1026B0007FCB0D45EFF01FCB0D45EFF0BFCA414575
:1026C000EFF05FCA13050002EFF0BFD04D45EFF009
:1026D0005FD01305A002EFF0DFCF0145EFF09FC8F8
:1026E0000145EFF03FC80145EFF0DFC71305F007E4
:1026F000EFF05FC71305B002EFF0BFCD0145EFF07B
:102700007FC60145EFF01FC60145EFF0BFC51305B9
:10271000F007EFF03FC513059002EFF09FCB6FD0AD
:102720007FAFEFD25FABB28936897D16FD16C20648
:102730004206C18241822A8A2E84BA8AEFF09FCC57
:10274000636024036FD07FAC85045685C204EFF02C
:102750009FC4C180E3EA34FF050442044180CDB741
:10276000D284CDBFEFD2DFA83284AE862A86EFF0C6
:102770007FC92285EFF03FC26FD0DFA9EFD2DFA47F
:102780003304A64041112A8BAE8B3389B640054CE9
:1027900063478000014C01C43304C5407D5C854C17
:1027A00063482001814C6305090033098040FD5CCA
:1027B000A28463532401CA84814A014A814963D5B2
:1027C000340141016FD0DFA393950B0113150B0169
:1027D0003A86C18141813AC6229AEFF0BFF8CA9A7F
:1027E000324763D54401330A9A40629B63D5540152
:1027F000B38A9A40E69B8509C20993D90901C1B7FA
:10280000EFD21F9C93940701C180BE8B8D83B38749
:10281000F40201113AC8FD143D67C2042A8B2E84CC
:10282000B28C368D3EC69307473C42CA130A473CDA
:10283000AA8D81493ECEC18083460A0003C70C00A1
:10284000639EE60283461A0003C71C006398E602F3
:10285000B38684003386B401C2064206C182418237
:10286000A2856E85EFF01FBA93072002338CF90220
:10287000F24701493E9CB247636BF90085097947ED
:10288000130A2A02E39AE9FA05616FD03F973307EA
:102890002C013C23814A3ECCE24733D75741D247F3
:1028A000058B99EB6A8511E34245EFF0DFAE850AAF
:1028B000A147E393FAFE2DA011C76A86A2856E8513
:1028C000EFF05FEA93871D00939D070193DD0D01F3
:1028D00033876D41E31D77FD050442044180DA8DA5
:1028E00005091379F90F41BFEFD21F8E2A84AE84F8
:1028F0003289B6893A8ABE8A428B930BF0078347A6
:10290000090099E36FD0DF8F2285410442045A8881
:10291000D6875287CE864A86A6854180EFF05FEE45
:1029200063F68B00C104C204C18001440909C1BF20
:10293000EFD21F890111368B939607013ACCC182E1
:1029400013D7470093DA17003E8DB387E60232892A
:102950001387F5FF1306F5FFBA965696C206420690
:102960004182C182AA843ECA2E8442CEEFF09FA942
:10297000130609FE1376F60F931766003EC6B96973
:1029800093174600356A3EC8A68C014C938949C00E
:10299000130A4A61A14DD24713160C0141826365A7
:1029A000F60005616FD09F85C1476317FD02C247DE
:1029B000338687015296834B06000149F24733D68E
:1029C0002B41058A9DE35A8511E26245EFF0BF9CD9
:1029D0000509E315B9FF35A893070002E313FDFCD1
:1029E000B247338687014E96F9B711C65A86A2853B
:1029F0006685EFF03FD713871C00931C070193DC1B
:102A00000C0133869C40E31556FD050442044180C9
:102A1000A68C050C49B7EFD2AFFA41113E8A938AD2
:102A2000F6FF935718002A8D2E89328CBA89C28BF3
:102A30003EC693FCFA0F814D81441304F00F294BDD
:102A400063958C0041016FD06FFB668785477D17CA
:102A50001377F70F63108704B357FC02B3F76703CC
:102A600013F6F70F85EC63DB5D0385EB0148DE872A
:102A70005287CE86130600026A85CA85EFF05FEBA7
:102A8000B247FD1C850D3E9D420D135D0D0193FC6B
:102A9000FC0F7DB7B38767035DBF85440148DE87C0
:102AA0005287CE8613060603C1BFEFD2CFF2B68996
:102AB000B28AFD167D16AE962A96C2064206C182DD
:102AC00041823A8BCE84EFF0FF9301493384344145
:102AD00042044180631259036FD02FF3131A14007C
:102AE0005A9A03450A0005044204EFF0BF870345E4
:102AF0001A004180EFF01F87E31294FE0509CE947F
:102B00004209C20413590901C180C9B78280828079
:102B10008280EFD2EFED797185450545EFE09F8E1C
:102B20009307F0053EC495679387F7E12C003705BE
:102B300000403EC6EFE09F95C167938707063ED0F1
:102B40000C109307401F370500402313F102231494
:102B50000102EFE05F9EA14537050040EFE01FAAAC
:102B6000854537050040EFE0DFA785453705004084
:102B7000EFE09FA485451145EFE0FF868547FC8285
:102B800037150140E1473ECE4C088D4713050580BF
:102B90003ECCEFE00FD645616FD0CFE7EFD24FE5E7
:102BA0009305401F19E19305C05D37050040EFE034
:102BB000DFA56FD02FE6EFD2AFE30111AA842E84F8
:102BC00009458545EFE01F84E082370400404C084A
:102BD00013050440E484231D0100231B0100EFE0E2
:102BE000FF8A05469305100413050440EFE05F9E3D
:102BF0009307D0025C86680085473EC8EFE0EFDCB3
:102C0000854513050440EFE03F9B05616FD08FE0E1
:102C100023A0A1868280EFD20FDC9384C1A9138404
:102C2000C199B7FA00001387A1869387818616237E
:102C30009E23C207C1836394D7006FD00FDD1E238C
:102C40001306F00FC207C18393861700C206C18224
:102C500016A3A69794231E23E206E1866374F6006A
:102C6000231007001387418629461C43138B418696
:102C70006385C60035466396C602E356F0FAA2970E
:102C8000354693850A7C228523800700EF00F001FA
:102C900011E583A7018699C32285829723200B0023
:102CA00059B71306E00FE340F6F813861700A29712
:102CB00010C394A38DBFEFD2AFD3797185451305AF
:102CC0000004EFE02FF485454145EFE0CFF18D475B
:102CD000FC828D473ECC4C08E147371501403ECE83
:102CE000EFE02FC1F16737240040938707203ED0E3
:102CF0000C10B7070C00130504803ED402D2231633
:102D00000102EFE01F93054693055052130504801E
:102D1000EFE03F9F930770055C86680085473EC8DB
:102D2000EFE0AFCA130504808545EFE03F9C9305B3
:102D3000000413050480EFE0DFA145616FD08FCD63
:102D4000EFD20FCBB72400402A843309B500938417
:102D50000480631424016FD0EFCB0C202685EFE0B4
:102D6000BF9D930500042685EFE01F9E7DD90504D5
:102D7000CDB7EFD2EFC77971854513050008EFE0B5
:102D80006FE885454145EFE00FE6B147FC828D478E
:102D90003ECC4C08E147371501403ECEEFE06FB521
:102DA000896737240040938707583ED00C10B70737
:102DB0000C00130504C03ED402D223160102EFE03A
:102DC0005F87054693055052130504C0EFE07F93DB
:102DD000930780055C86680085473EC8EFE0EFBE3C
:102DE000130504C08545EFE07F90930500041305AB
:102DF00004C0EFE01F9645616FD0CFC1EFD24FBF47
:102E0000B74401402A843309B500938404806314D5
:102E100024016FD02FC00C202685EFE0FF91930591
:102E200000042685EFE05F927DD90504CDB7EFD28F
:102E30008FBAB72400402A89AE892A84338AA50034
:102E4000938404C063184401CE854A85EFF01FFBCC
:102E50006FD0AFBB0C202685EFE01F8E93050004DA
:102E60002685EFE07F8E7DD90504E9BFEFD24FB80C
:102E70007971854537050400EFE0CFD885452145B8
:102E8000EFE06FD68567938707C0FC823715014056
:102E90008D473ECC4C08E147130505C03ECEEFE020
:102EA0004FA5896737540040938707583ED00C10D0
:102EB000B7070C00130504803ED402D2231601028A
:102EC000EFE02FF705469305505213050480EFE01D
:102ED0005F83930770137C8685475C87680085470E
:102EE0003EC8EFE08FAE130504808545EFE01F80FC
:102EF0009305000413050480EFE0BF8545616FD0A2
:102F00006FB1EFD2EFAE7971854537050200EFE082
:102F10006FCF85451145EFE00FCDB147FC823715E6
:102F200001408D473ECC4C08E147130505803ECE5D
:102F3000EFE02F9CF16737440040938707203ED095
:102F40000C10B7070C00130504403ED402D2231620
:102F50000102EFE00FEE05469305505213050440C1
:102F6000EFE02FFA930760137C8685475C87680043
:102F700085473EC8EFE06FA5130504408545EFE0A7
:102F8000EFF69305000413050440EFE08FFC456164
:102F90006FD04FA8EFD24FA36D71AA8BAE8AEFD03E
:102FA000FFE99387A18682232A8B420441808144D2
:102FB0001389A1869389C1A9130AF00FEFD01FE8E6
:102FC0003305654163675503014591A8338789003F
:102FD0001823140A05048504B6974204C204238EFC
:102FE000E7EE4180C18063738A00014463739A00F5
:102FF0008144938C818603D70C00A687E318E4FCF8
:103000001C0AA697DE856800238E07EED9215DD5C0
:1030100083D70C000545C207C1832310F900516115
:103020006FD00F9E83A7C18137177A00130707203F
:10303000B3D7E70293F7F70F2387F1861307803E94
:10304000B387E7022396F1868280B7F700E0D84382
:103050008146799BD8C303C7E1863306A70290CB8C
:10306000D4CB98431367070198C39843136717029B
:1030700098C3D843058B75DF9843799B98C38280AA
:10308000B7F700E0D8438146799BD8C303D7C18600
:103090003306A70290CBD4CB98431367070198C39C
:1030A00098431367170298C3D843058B75DF98437D
:1030B000799B98C38280EFD2AF932A841165011166
:1030C00085451105EFE02FB2930700207C8237156C
:1030D00001408D473EC44C00E147130505803EC6C4
:1030E000EFE02F8122C837440140B70708000C08E1
:1030F000130504803ECC02CA231E0100EFE06FD30B
:10310000130504808545EFE06FDE93050004130589
:103110000480EFE00FE405616FD0CF8FEFD2AF8B6B
:10312000B7440140AE8932890144938404806345E9
:1031300024014A856FD06F8D930500042685EFE04A
:10314000AFE07DD9B3878900838507002685050414
:10315000C205C181EFE04FDED9BF138741821C4316
:10316000938601BA3E95636BD500B786002093869F
:10317000068063E5A60008C33E858280FD57EDBF4B
:10318000B3C7A5008D8B3307C50081E78D4763ED7D
:10319000C700AA87637EE508942185078505A38F6C
:1031A000D7FEE3EBE7FE828093763500AA8789CAD3
:1031B000942185078505A38FD7FE93F63700C5BFF9
:1031C0009376C7FF138606FE63F0C70683A3050048
:1031D00083A2450083AF850003AFC50083AE050120
:1031E00003AE450103A3850183A8C501938545026C
:1031F00023A0770003A8C5FF23A2570023A4F7014B
:1032000023A6E70123A8D70123AAC70123AC67009F
:1032100023AE17019387470223AE07FF75B790418E
:103220009107910523AEC7FEE3EBD7FEE3E6E7F691
:103230008280011126CA4AC806CE22CC4EC652C48C
:10324000AA842E8901C51C4D91E3212F9C4C8044FA
:1032500099E32685392797C700009387A759631BF1
:10326000F402C0405E24A18BB1C71C48A1C7FD5920
:10327000294A1C4483450900FD17B1E91CC463DDDC
:1032800007062286A9452685BD2CFD576308F50251
:10329000294535A097C700009387C7576314F400EA
:1032A0008044C9B797C700009387C752E31CF4FA5C
:1032B000C0444DBFA2852685252E55D97D55F240A7
:1032C0006244D2444249B249224A056182801CC408
:1032D000050963D70700184C63CAE70063884501F6
:1032E0001C401387170018C08CA361B7228626855F
:1032F000192CE31035F9D9B71C401387170018C0F3
:10330000294798A371B793878182AA8588436FF074
:103310005FF235713ECBA6DA36C73AC942CD46CF09
:103320009387818286DEA2DC844363DB05009307FA
:10333000B0089CC07D55F6506654D6540D6182800D
:1033400093078020FC822AC42ACC814799C19387A5
:10335000F5FF3EC83ECE7401FD572E8426852C0015
:10336000FC8336C2EF00302FFD576355F5009307FD
:10337000B0089CC069D0A247238007006DBF71715F
:103380003ED39307402006C72EC632CD36CF3AD162
:1033900042D546D72312F1022ACC2AD4F528970722
:1033A0000000938707063EDEFD57B2452313F10266
:1033B000938781822ACE2AD6884334092E862C0808
:1033C00082C682D036CAEF00505DBA404D6182801D
:1033D000411122C42E848395E50006C6EF109004A7
:1033E000634905007C48AA977CC8B2402244410149
:1033F00082805E247D777D17F98F5EA4FDB701453D
:103400008280DE25011122CC26CA4AC84EC606CECD
:1034100093F70710AA842E843289B68991C78395C1
:10342000E500894601464D2D5E247D777D17F98F95
:103430005EA48315E4006244F240CE864A86B24917
:1034400042492685D2440561ADAA411122C42E8489
:103450008395E50006C64925FD575A24631AF500F1
:10346000FD77FD17F98F5EA4B240224441018280AE
:103470008567D98F5EA468C8C5BF8395E500BDA4E4
:1034800093F5F50F1C2191C76393B7008280050562
:10349000D5BF91C101458280AA87850703C7F7FF81
:1034A0006DFF3385A7407D15828015C27D160147CB
:1034B000B307E500B386E5009C2394226396D7000A
:1034C0006304C7000507EDF73385D74082800145C7
:1034D000828018219C2101E791C3014582808147A8
:1034E00039A01C3113071500EDDB81473A8533877E
:1034F000F500182365D7B306F5009422E393E6FEA2
:1035000085072A87E5B7011122CC26CA4AC806CE0C
:103510004EC6AA842E89328401C51C4D91E39121A7
:1035200097C700009387072D6317F406C0401C4C13
:103530001CC45E24A18BC1C31C48B5CF1C480840E5
:103540009379F90F1379F90F1D8D5C486346F500E7
:10355000A2852685CD2C25E51C440505FD171CC438
:103560001C401387170018C0238037015C4863880C
:10357000A7005E24858B81CBA9476316F900A2853D
:103580002685D1240DEDF24062444A85D244424959
:10359000B2490561828097C700009387A72763140B
:1035A000F400804469B797C700009387A722E3100F
:1035B000F4F8C044ADBFA28526851D2841D17D59B0
:1035C000D9B7411122C42A842E85B285368623AE0E
:1035D00001B806C6EFF09FB4FD576317F500938757
:1035E000C1B99C4391C31CC0B240224441018280B6
:1035F00041119387818226C2844322C44AC006C6F1
:103600002A892E8489C49C4C99E32685992E97C7D4
:1036100000009387271E631BF402C0400317C400F9
:1036200093170701C18393F68700ADEA93F607016C
:1036300095EEA5472320F900136707045AA47D558A
:10364000B2402244924402494101828097C700005F
:103650009387471C6314F4008044C9B797C70000E0
:1036600093874717E31CF4FAC0444DBF918B9DC369
:103670004C5889C9930744046384F5004A858D2B0F
:10368000232A04025E242322040093F7B7FD5EA4DC
:103690001C481CC05E2493E787005EA41C4899EB7D
:1036A0005E241307002093F707286385E700A285AF
:1036B0004A8575215E2413F717001DC35C48232437
:1036C0000400B307F0401CCC1C480145B5FB831730
:1036D000C40013F707082DD793E707045EA485B746
:1036E000898B014791E3584818C4F9BF411122C49E
:1036F0002A842E8523AE01B806C6EF10702AFD5726
:103700006317F5009387C1B99C4391C31CC0B240B5
:10371000224441018280DE25011122CC26CA06CE38
:103720004AC84EC613F78700AA842E8479EBD84185
:10373000634DE000B841634AE0000145F240624455
:10374000D2444249B2490561828058547DD703A9C9
:1037500004009396370123A0040063DB060670483B
:103760005E24918B99C75C401D8E5C5899C33C4088
:103770001D8E5C540C50814626858297FD575A2435
:10378000631DF5009440F54763E8D706B70740206E
:103790008507B3D7D700858BA5C31C482322040017
:1037A0001CC09317370163D80700FD576314F50059
:1037B0009C4091E368C84C5823A02401BDDD9307C9
:1037C00044046384F50026852521232A0402B5B725
:1037D0000C500146854626850297FD572A86E3113F
:1037E000F5F89C40B5DF75476385E700594763935B
:1037F000E70423A0240191B7136707045AA47D5559
:1038000035BF83A90501E38A09F203A905008D8B61
:1038100023A0350133093941014791E3D84918C440
:10382000E35D20F11C540C50CA864E862685829793
:103830006347A0005E2493E707045EA4C9B7AA9972
:103840003309A940F1BF9C49A5C3011122CC06CE82
:103850002A8411C51C4D81E72EC62122B24597C787
:103860000000938727F9639CF5004C408397C500BF
:103870009DC722856244F24005616FF0DFE997C77A
:103880000000938727F96394F5000C44C5B797C7E8
:103890000000938727F4E39BF5FC4C44C1BFF24042
:1038A000624401450561828001458280411122C444
:1038B00006C62A844EA572A52320050023220500F2
:1038C000232405002322050623280500232A0500BA
:1038D000232C0500214681451305C505EFC05F94E3
:1038E00097070000938707AF5CD097070000938786
:1038F00087B11CD497070000938767B55CD49707FE
:1039000000009387C7B700D01CD8B24022444101C1
:10391000828097050000938545F391AA411126C244
:10392000130680069384F5FFB384C4024AC02E892F
:1039300022C406C69385440785262A8401CD232008
:10394000050023222501310508C41386840681451C
:10395000EFC01F8D2285B2402244924402494101AA
:1039600082801C4DA5E7411106C622C497070000BE
:10397000938767FA1CD59387C1829C43232405044F
:1039800023260504232805046314F50085471CCD70
:103990002A84352848C022851D2808C42285052888
:1039A00048C4484001469145EFF05FF008440546A1
:1039B000A545EFF0BFEF48440946C945EFF01FEFBA
:1039C00085471CCCB2402244410182808280411153
:1039D0009387C18226C284434AC006C69C4C22C437
:1039E0002A8981E72685EFF0DFF7938484048044F9
:1039F000DC40FD1763D607009C40B9CF8440C5BFAB
:103A00000317C40039E7C177850723220406232062
:103A1000040023220400232404005CC4232804009F
:103A2000232A0400232C0400214681451305C405E4
:103A3000EFC00FFF232A0402232C040223240404D2
:103A4000232604042285B2402244924402494101C3
:103A500082801304840671BF91454A85EFF01FEC04
:103A600088C049FDB1472320F9000144E1BF7971C5
:103A700022D44AD052CC56CA5AC85EC606D626D2DE
:103A80004ECE2A8AAE8A130485040149054BFD5B9C
:103A900009ECB25022544A8592540259F249624AC2
:103AA000D24A424BB24B4561828004448329440090
:103AB000FD1963D409000040E1BFDE24637BFB00F5
:103AC0008397E40063877701A6855285829A3369DC
:103AD000A90093848406E9BF411122C42A842E855B
:103AE000B285368623AE01B806C6EF10A06DFD572D
:103AF0006317F5009387C1B99C4391C31CC0B240C2
:103B00002244410182801971A6DAAE848395E500D2
:103B1000A2DC86DE328463DB0500DE2423A00600FF
:103B200093F7070885E7930700401DA0300836C6C5
:103B3000EF10204EB246E34205FE7247BD67F98F93
:103B40007977BA9793B717009CC2F1BF9307000427
:103B50001CC0F6506654D654014509618280DE25AA
:103B6000011122CC06CE26CA4AC8898B2E8489CF61
:103B7000930774041CC01CC885475CC8F2406244AB
:103B8000D24442490561828074003000AA84EFF07B
:103B90009FF7A2452A892685012219E98317C400C7
:103BA00013F7072061FFF19B93E727005EA4C9B7D5
:103BB00097070000938727D69CD45E2408C008C8C6
:103BC00093E707085EA4A2475CC8B24781CF83157C
:103BD000E4002685EF10804611C55E24F19B93E733
:103BE00017005EA45E243369F9002316240179B717
:103BF000DDC183A7C5FF411122C406C626C21384B6
:103C0000C5FF63D307003E94AA84EF1080509387CA
:103C100001879C4381EF2322040023A8818622444C
:103C2000B2402685924441016F10C04E637EF4007D
:103C300014403307D4006396E7009843DC4336977B
:103C400018C05CC0D9BFBA87D84319C3E37DE4FE6E
:103C500094433386D700631F86001040B29694C306
:103C60003386D700E31DC7FA10435843B29694C376
:103C7000D8C375B76375C400B1479CC04DB7104039
:103C8000B306C4006316D70014435843B29614C059
:103C900058C0C0C369B78280011126CA9384350019
:103CA000F19806CE22CC4AC84EC6A104B14763F5AE
:103CB000F404B14463E4B4042A89EF108045938787
:103CC000018798433A8429E4938741879C4399E785
:103CD00081454A85EF00D07723AAA186A6854A852B
:103CE000EF001077FD5963193507B1472320F9001C
:103CF0004A85EF10204229A0E3DE04FAB1471CC137
:103D00000145F2406244D2444249B2490561828091
:103D10001C40858F63CF0702AD4663F6F6001CC0DA
:103D20003E9404C031A05C406313870223A8F1864F
:103D30004A85EF10203E1305B400930744006199B3
:103D40003307F5405DDF3A94898F1CC05DBF5CC3CB
:103D5000C5B72287404085BF130435007198E30240
:103D600085FCB305A4404A85EF00906EE31B35FB4C
:103D7000ADBF01114AC803A9850022CC52C45AC064
:103D800006CE26CA4EC656C22E84328B368A63E9C8
:103D90002609DE2513F7074851C304408C495848CB
:103DA000AA8AB389B4408D44B384E4020947B3C4FA
:103DB000E402138716004E9763F3E400BA8493F786
:103DC0000740BDCFA6855685EFF01FED2A891DE17E
:103DD000B14723A0FA005E247D5593E707045EA453
:103DE000F2406244D2444249B249224A924A024BCA
:103DF000056182800C484E86EFF08FB85E2493F701
:103E0000F7B793E707085EA42328240144C84E9916
:103E1000B38434412320240104C4528963732A01EA
:103E2000528908404A86DA85EF10402A1C44014531
:103E3000B38727411CC41C403E99232024014DB761
:103E400026865685EF10202D2A895DFD0C48568563
:103E5000EFF01FDAB5BFDE25717126D34AD14ECF00
:103E600006D722D552CD56CB5AC95EC762C566C3A6
:103E700093F70708AA892E89B284B9C39C49A9E39C
:103E80009305000436C6EFF03FE12320A900232864
:103E9000A900B24615E1B14723A0F9007D55BA50FB
:103EA0002A549A540A59FA496A4ADA4A4A4BBA4B8E
:103EB0002A4C9A4C4D61828093070004232AF90012
:103EC00093070002A30CF1029307000302DA230D0B
:103ED000F10236CE930B500297CA0000938A8A955E
:103EE000054C294B26841C2099C363997709B30C90
:103EF0009440638E0C00E6862686CA854E85EFF0D8
:103F00005FE7FD57630BF518D256E69636DA1C20AC
:103F100063850718FD579304140002D002D63ED2E1
:103F200002D4A301010682DC8C2015465685EF10D1
:103F3000601813841400825721E513F7070109C79D
:103F400013070002A301E10613F7870009C713074F
:103F5000B002A301E10694201307A002638AE602DF
:103F6000B25726848146254618209305140013076E
:103F700007FD6372E6068DC63ED61DA00504A5B7F3
:103F8000330555413315AC00C98F3ED0A28469BFBB
:103F9000724793064700184336CE634707023AD666
:103FA00018209307E002631DF70418309307A0025E
:103FB000631BF702F2470904138747009C433ACE7C
:103FC00063C107023ED22DA83307E04093E72700E4
:103FD0003AD63ED0F1B7B387670385462E84BA97A9
:103FE00061B7FD57C5B7050402D281468147254612
:103FF000182093051400130707FD6376E606F9F20F
:104000000C200D4617C5000013054583EF10800AEC
:1040100011CD97C70000938767821D8D9307000419
:10402000B397A700025505045D8D2AD00C201946D0
:1040300017C500001305C58093041400230CB102BA
:10404000EF10400725C597C7FFFF9387A7FB95E7AC
:104050000257F2471377071009CF91073ECED25788
:10406000D2973EDA41B5B387670385462E84BA9767
:1040700041B79D07E19BA107D5B7780897060000D7
:10408000938666CF4A860C104E8597000000E700A5
:104090000000FD572A8AE314F5FC8357C9007D55BB
:1040A00093F70704E39D07DE5255D5BB78089706C2
:1040B0000000938646CC4A860C104E857923D1BFEA
:1040C000411106C622C426C24AC0FD57639AF500B4
:1040D000FD54B24022442685024992444101828027
:1040E0005E2613F9F50F93F4F50F93F7F7FD5EA62F
:1040F0005C5A584285C71C5E3284635CF7001C40E2
:104100001387F7FF18C0A38F27FF5C4085075CC0AB
:10411000C9B7B285EF00B0677DD15DBF144A1C42BC
:1041200081CE63FBF60083C6F7FF63979600FD1709
:1041300005071CC258C271BF5CDE930746045CDAF7
:104140008D471CDE930766041CC2854738C22303D3
:1041500026055CC2BDBF411122C42E84CC5906C6BF
:104160009DC1930744046384F500EFF07FA83C40B1
:10417000232A04025CC081CB5C5C01451CC0B240B8
:104180002244410182801C48232204007D551CC02A
:104190005E2493E707025EA4DDB7130101D29707FF
:1041A0000000938727F22326312D232CF128930931
:1041B000C10197070000938747FA232C812C232AFB
:1041C000912C2328212D2324412D2322512D2320DE
:1041D000612D232E712B232C812B232E112C232A8E
:1041E000912B2328A12B2326B12BAA842E842324B0
:1041F00001122326011223283113232EF12836CC55
:10420000130A5002130BA002A54B294997BA0000CC
:10421000938ACA6217CCFFFF130CCCDE1C2232C675
:10422000638C0730EF0070643246834D0600930CB8
:1042300016006E951C31A18BA1C35C406357F00240
:10424000EF00B0621C4098233A951831218B19E396
:104250006686E9B70327C11285071CC00507232618
:10426000E11258407D1758C0C9BF8327C129A285D4
:104270002685829771D5E9BF63974D1723220112D6
:10428000232E01101C3263976701C147232EF110C2
:10429000930C260083C50C00668D850C938705FD65
:1042A00063F0FB060D465685EF00D06001CD330567
:1042B00055418547B397A7000325C111668D5D8DD4
:1042C000232EA11083470D0013077006930C1D00C9
:1042D0006366F7081307500663FCE71A13077004B8
:1042E000636AF7021307500463F4E71A638807123E
:1042F000638B470F8D47232AF1122320211361A0DE
:1043000083274112B307F902938707FDAE97232253
:10431000F11249B71307B0056380E7126365F7022E
:1043200013078005E398E7FC0327C11113670720F3
:10433000232EE11041472320E1121307E006B33793
:10434000F7008D073DA8130730066384E7101307B5
:104350004006E391E7FA23202113C5B713070007AE
:104360006380E70C6363F7061307E006638CE70ED0
:10437000636FF70A13079006E39EE7F62320011206
:104380008D47232AF1125C406356F0108327C11138
:1043900093F7070491EBEF00504D1C4098233A959A
:1043A0001831218B6310071083274113094763409D
:1043B000F712340822866C0A2685152B8547630D73
:1043C000F5168947E316F5E8B9A013075007E3840B
:1043D000E7F813078007E389E7F413073007E39B47
:1043E000E7F0894779BF5C406351F0021C40982395
:1043F0006314B715850758401CC08327C1127D1769
:1044000058C085072326F112A1B58327C129A285AB
:104410002685829761DD0325811271ED7D55C5A04A
:104420000327C11113670702232EE110F5BDA14731
:104430002320F1129147B1B7E6854E85EF00F003D6
:104440008327C111AA8C93E70704232EF110854717
:104450000DBF8327C111232A011293E70704232EDE
:10446000F11015B78327C11113F70701E31207DE17
:10447000624793F517008326C1121306470089C5CA
:1044800032CC1C4396A3E9B332CC1C4394C3C9B3CA
:104490009547C5BD8327C129A28526858297E30755
:1044A00005EE95BF0327C11205072326E1125840E8
:1044B0007D1758C06355E00085071CC0E9BD832700
:1044C000C129A28526858297E30705ECA9B7114784
:1044D0006348F700340822866C0A2685CD29F9BD89
:1044E000E3080CD6340822866C0A26859700000063
:1044F000E7000000E1B55E2493F7070485F383200D
:10450000C12D0324812D8324412D0329012D8329CD
:10451000C12C032A812C832A412C032B012C832BB1
:10452000C12B032C812B832C412B032D012B832D9D
:10453000C12A1301012E828003258112C9B7797126
:1045400056CA9C49BA8A984522D426D24ECE52CC1D
:1045500006D64AD05AC85EC6AA892E84B284368A44
:1045600063D3E700BA879CC00347340419C38507A7
:104570009CC01C4093F7070281C79C4089079CC0E0
:104580000329040013796900631A0900130B9401CD
:10459000FD5B5C449840998F634CF9041C40834652
:1045A000340493F70702B336D000A5EB13063404A6
:1045B000D2854E85829AFD576303F5041C4011464F
:1045C0009840998B544481446397C700B384E64074
:1045D00063D3040081441C4418486354F700998F46
:1045E000BE94014969047D5B63982405014509A8CF
:1045F00085465A86D2854E85829A631E75017D5501
:10460000B250225492540259F249624AD24A424B61
:10461000B24B456182800509ADBF3307D400130654
:104620000003A301C7040347540493871600A2970D
:104630008906A381E7049DBF85462286D2854E85E3
:10464000829AE30E65FB050945B7797122D426D21B
:104650004AD04ECE06D652CC56CA5AC8B689942DE8
:10466000930790063289AA842E8413863504638DBD
:10467000F60263E2D706930780056387F61863EDB9
:10468000D700638F062093073004638FF60A930ADE
:1046900024042301D404D1A0930730066386F60ACC
:1046A00093074006E395F6FE1C40084393F607087F
:1046B00093054500CDC61C410CC363D80700130702
:1046C000D002B307F040A301E40497B6000093863C
:1046D000A61729476DA8930700076383F61663E5BD
:1046E000D7029307E006638AF6189307F006E39073
:1046F000F6FA0C401C4313F80508138547006308BD
:10470000080608C39C438DA893075007E383F6FE71
:1047100093078007638AF61293073007E399F6F64A
:104720001C43D04181459386470014C383AA0700E8
:104730005685EF00301801C53305554148C05C402F
:104740001CC8A301040461A81C43930A2404938693
:1047500047009C4314C32301F4048547D5B793F65F
:1047600007041C410CC3B1DAC207C187B9B793F57E
:10477000050408C3C1D99E231307F0066387E60E1C
:1047800097B600009386460C2947A30104044C40C9
:104790000CC463C5050008406D9908C099E3B28A4E
:1047A00089CDB28AB3F5E702FD1AB6958C21238034
:1047B000BA00B3D5E70263F0E70CA147631EF70028
:1047C0001C40858B91CB58401C4863C7E70093077A
:1047D0000003A38FFAFEFD1A3306564110C84E8718
:1047E000CA867000A2852685EFF07FD57D5A631DAD
:1047F000450B7D55B250225492540259F249624AF7
:10480000D24A424B45618280A382D50497B600000C
:10481000938686030C40084313F805081C411105D4
:10482000630D080208C313F7150001C793E50502DD
:104830000CC04147B9FB0C4093F5F5FD0CC0B1B776
:104840009C4193E707029CC193078007A302F404ED
:1048500097B600009386860075BF13F8050408C359
:10486000E30308FCC207C1837DBF97B600009386AF
:10487000A6FD214719BFAE8735B794411C43CC49EB
:1048800013F80608138547006306080008C39C4315
:104890008CC339A008C393F606049C43F5DA8EA3B3
:1048A00023280400B28A25BF14485686CA85268567
:1048B0008299E30045F51C40898B8DE7B247484457
:1048C000E35AF5F23E853DB785465686CA8526856C
:1048D0008299E30065F3050A5C443247998FE3450A
:1048E000FAFEE9BF014A930A94017D5BF5B79C4546
:1048F000011122CC26CA52C406CE4AC84EC656C2A0
:104900005AC02A8A2E84B28491E7984D854711C3F4
:10491000FD571CC41C40C18B99E79C42138747007C
:1049200098C283A907000149854A094B084C0DC567
:10493000631F55079C4098235C48BA979C2389EFD6
:1049400063170904F2406244D2444249B249224A00
:10495000924A024B056182801C400509C18B91E798
:104960009C4085099C23A38FF9FE9840DC400507F5
:1049700098C01844FD17DCC07D1718C409CBE34765
:10498000F0FA83270418A6855285829745D11C40EA
:10499000C18B81EB5C4485075CC41C4C99C32380AC
:1049A00009001C4801453E992328240161BF631971
:1049B0006501652D9C409C233E951C31A18BC9DF70
:1049C000E31709FC084C8547E313F5FCA5BF5D71AF
:1049D00097B70000938707EBCAC03EC2368997B7E6
:1049E0000000938767EA944D3EC497B70000938711
:1049F000E7E9A2C44EDE5AD86ECE3EC686C6A6C22F
:104A000052DC56DA5ED662D466D26AD08D47AA8965
:104A10002E84B28D170B0000130B4B566396F600D5
:104A2000170B0000130B4B411C449306C015014AA1
:104A30001386F7FF63F7C600138A37EA9307D0158A
:104A40001CC41C408566938606D09304C401D58F90
:104A50001CC0130C4100A68A814B930C002083A735
:104A60000D0003250C0009468C23A92539CD854767
:104A7000639EFB0C5C4099E71C40214758C093E7BC
:104A800007201CC01C4093F7F7AF1CC01C441386C2
:104A9000F7FF10C49DCB03A60D00138D1A009307DA
:104AA000160023A0FD0010222380CA0003A64D009B
:104AB000EA8A7D1623A2CD006349C00003260418AC
:104AC000EE854E85029663180510850B8D47110CF7
:104AD000E397FBF85C4099E3A9475CC05C40484819
:104AE00097B500009385C5D99D8DFD7B056C568DCE
:104AF0006922814A930C0003938BFB6F130C0C808B
:104B000014441040BDCE03A50D004C4803480500D9
:104B1000C2958C21BDC563189805B3758601A1C5E2
:104B2000850A63050A0085067D1A14C483A64D0014
:104B3000FD1623A2DD006350D00483A60D00850678
:104B400023A0DD001444FD1614C45DBF8947E39F14
:104B5000FBF21C4013F60760E31996F7414758C073
:104B600093E707101DB73376760110C01421050DA9
:104B7000A30FDDFE65BF83260418EE854E85829661
:104B800071D1144093F6061085C263FCA4018345DD
:104B9000FDFF8326C417130AFDFF6E864E8582969D
:104BA000528D0545630E9D041840418B39E3230067
:104BB0000D0054400146A6854E85029B14400327F4
:104BC000090013F6060211CA930647002320D900F4
:104BD000184308C321A8814A6DB793F51600130640
:104BE000470095CD2320C90018430AA35844050760
:104BF00058C41C48B3049D40D694BE9404C80145D3
:104C0000B640264496440649F259625AD25A425B4B
:104C1000B25B225C925C025DF24D61618280232076
:104C2000C9007DB7411122C42A842E85B2853686FB
:104C300023AE01B806C6692BFD576317F5009387AD
:104C4000C1B99C4391C31CC0B2402244410182803F
:104C5000411122C42A842E8523AE01B806C6EFE096
:104C6000CFCFFD576317F5009387C1B99C4391C31C
:104C70001CC0B2402244410182809C211307E00500
:104C80006386E704138715008146014693050010EB
:104C90003308C5002300D8000506E31BB6FE130643
:104CA000F7FF9DC393C616009308D0021308D005E2
:104CB0003306F50014A20C231306170063831503B3
:104CC0006384050189E93A8632858280138725004D
:104CD0009C3185465DBFAE873287D9BF9307D0022E
:104CE000E5BF0C33E38C05FFE3CAF5FE0907850732
:104CF0003306F50014A2E3CCB7FE75BF79714AD034
:104D00004ECE06D622D426D2AA892E899304190023
:104D100003C4F4FF3A8536C632C42EC23AC099267F
:104D200022951C3102479245A18B2246B246D1E31F
:104D30009307D0026311F4089C20054393042900D3
:104D4000E5C641476390E60213070003639CE70052
:104D50009C201307800593F7F70D6392E70C9C30B6
:104D6000C1468904B70800806314030093C8F8FFA4
:104D700033FFD80201480145A54FE54EFD5233DE11
:104D8000D802138707FD63E3EF04BA8763DED70415
:104D9000630D58007D58636AAE006314AE0063462D
:104DA000FF0005483385A6023E95850483C7F4FFBE
:104DB000C9BF2689A1BF9307B0026305F400A2878B
:104DC0000143BDBF9C2093042900DDBF1387F7FB7F
:104DD00063E5EE00938797FC55BF1387F7F963E50A
:104DE000EE00938797FA5DB7FD57631FF8009307AE
:104DF000200223A0F900468519EEB25022549254A5
:104E00000259F24945618280630403003305A040E2
:104E10006DD6630408009385F4FF0CC2F9BF9307B5
:104E20000003A9F2A1463DBF13070003E382E7F2A6
:104E3000A9460DBF938781829C43985309E717B712
:104E4000FF1F1307274F6FF07FEB79714AD04ECECB
:104E500006D622D426D2AA892E899304190003C427
:104E6000F4FF3A8536C632C42EC23AC0E52A2295EE
:104E70001C3102479245A18B2246B246A5EF93070B
:104E8000D002631BF4069C20054393042900F9CE4D
:104E900041476390E60213070003639CE7009C20F0
:104EA0001307800593F7F70D639DE70A9C30C14611
:104EB00089047D57335ED70201480145254FE54EF1
:104EC000B378D702138707FD6363EF04BA8763D013
:104ED000D706634C08047D58636AAE006314AE00C5
:104EE00063C6F80005483385A6023E95850483C74E
:104EF000F4FFC9BF268995B79307B0026305F40094
:104F0000A287014369B79C2093042900DDBF138762
:104F1000F7FB63E5EE00938797FC55BF1387F7F91E
:104F200063E7EE00938797FA5DB77D58C1B7635F7B
:104F300008009307200223A0F9007D5519EEB25016
:104F4000225492540259F24945618280630403005D
:104F50003305A0406DD6630408009385F4FF0CC2AE
:104F6000F9BF93070003B1F6A146A1B713070003E9
:104F7000E387E7F2A94635BF938781829C43985324
:104F800009E717B7FF1F1307E73A6FF01FEC01118E
:104F900022CC2E84CC5906CE26CA4AC84EC652C44C
:104FA000930744046392F50493050040EFE0DFCEDD
:104FB00011E97D55F2406244D2444249B249224A45
:104FC00005618280930700401CDC8347640448D855
:104FD0001305D53F3CA1834754041CB183474404C7
:104FE0001CA108C00145F9B70329840393191900CE
:104FF0004E861522AA8455DD330A2501AA854A86E4
:105000005285EFE0EF972320440144D8232C34034A
:10501000D1BF411122C42A842E85B28523AE01B8A6
:1050200006C66922FD576317F5009387C1B99C43F3
:1050300091C31CC0B240224441018280411122C46C
:105040002A842E8523AE01B806C6BD22FD576317FC
:10505000F5009387C1B99C4391C31CC0B240224460
:10506000410182800325C50E8280938781829C4303
:105070009C5389E797B7FF1F9387C72B03A5C70EDC
:10508000828091ED41116C00014501CA795591C6AC
:105090001C229CC108223335A000410182800145B9
:1050A00009CA795599C61C229CC108223335A00033
:1050B0008280828093F5F50F2A966314C50001451E
:1050C00082801C21E38EB7FE0505C5BF63F1A504F0
:1050D000B386C500637DD5029345F6FF8147FD1772
:1050E0006393F50082803387F60003480700338717
:1050F000C7002A9723000701DDB73387F500142383
:105100003307F500850714A3E319F6FE8280814773
:10511000E5BF8280828081E5B2856FE0FFB7011133
:1051200022CC06CE26CA4AC84EC6328401EEEFE033
:105130003FAC0149F24062444A85D2444249B249F7
:1051400005618280AE84AA8991202689E37485FE58
:10515000A2854E85EFE05FB42A8969DDA6852286A7
:10516000EFE00F82A6854E85EFE09FA8E1B789CDDD
:105170009307F00F63F7C7009307A0081CC17D5584
:10518000828090A1054582800145828083A7C5FF6A
:105190001385C7FF63D50700AA959C413E95828081
:1051A0009307800523AEF1B87D5582809307800573
:1051B00023AEF1B87D5582809307800523AEF1B808
:1051C000014582809307800523AEF1B87D5582802A
:1051D0009307800523AEF1B87D558280EF01FFFF74
:1051E000FFFF010003010005EF01FFFFFFFF0100CA
:1051F00003050009EF01FFFFFFFF010008040200A3
:105200000000FF010E000000EF01FFFFFFFF0100A3
:10521000030D0011820400008E04000096040000BB
:105220001405000086040000860400002805000024
:1052300028050000220A00003A0A00004A0A00007D
:105240005A0A0000740A0000840A0000940A000050
:10525000A40A0000B40A0000C40A0000D40A000036
:10526000E40A0000FA0A0000120B0000240B000000
:10527000420B00005E0B0000A60B0000D60B0000E6
:10528000EE0B0000360A0000040C00008E0C00003B
:105290009A0C0000A40C0000AE0C0000BA0C000038
:1052A000DE0C0000E80C0000EE0C0000F60C000024
:1052B000FE0C0000060D00006170706B6579000047
:1052C0006170706B6579223A2564000061707073BB
:1052D0007472696E67000000617070737472696E39
:1052E00067223A222564000041542B4D51545450FA
:1052F00055423D302C22247379732F353648654E44
:10530000505534414B2F636833322F7468696E6790
:105310002F70726F70657274792F706F7374222C96
:10532000227B5C2269645C223A5C223132335C224B
:105330005C2C5C22706172616D735C223A7B5C2232
:105340006170706B65795C223A7B5C2276616C756A
:10535000655C223A307D7D7D222C302C300D0A0098
:1053600041542B4D5154545055423D302C222473FE
:1053700079732F353648654E505534414B2F63684D
:1053800033322F7468696E672F70726F7065727434
:10539000792F706F7374222C227B5C2269645C22EB
:1053A0003A5C223132335C225C2C5C227061726187
:1053B0006D735C223A7B5C226170706B65795C2254
:1053C0003A7B5C2276616C75655C223A367D7D7D28
:1053D000222C302C300D0A0041542B4D5154545086
:1053E00055423D302C22247379732F353648654E53
:1053F000505534414B2F636833322F7468696E67A0
:105400002F70726F70657274792F706F7374222CA5
:10541000227B5C2269645C223A5C223132335C225A
:105420005C2C5C22706172616D735C223A7B5C2241
:105430006170706B65795C223A7B5C2276616C7579
:10544000655C223A377D7D7D222C302C300D0A00A0
:10545000FFFFFFFFFFFFFFFFFFFFFFFFFFFFFFFF5C
:10546000FFFFFFFFFFFFFFFFFFFFFFFFFFFFFFFF4C
:10547000FFFFFFFFFFFFFFFFFFFFFFFFFFFFFFFF3C
:10548000FFFFFFFFFFFFFFFFFFFFFFFFFFFFFFFF2C
:1096500094B2AD55AD55AD55AD55AD75B5B6B5B6C4
:10966000B5B6B5B6B5B6B5B6B5B6B5B6B5B6B5B6A2
:10967000B5B6B5B6B5B6B5B6B5B6B5B6B5B6B5B692
:10968000B5B6B5B6B5B6B5B6B5B6B5B6B5B6B5B682
:10969000B5B6AD55A514B5B6B5B6B5B6B5B6B5B68D
:1096A000B5B6B5B6B5B6B5B6B5B6B5B6B5B6B5B662
:1096B000B5B6B5B6B5B6B5B6B5B6B5B6B5B6B5B652
:1096C000B5B6B5B6B5B6B5B6B5B6B5B6B5B6B5B642
:1096D000B5B6B5B6B5B6B5B694B2B5B6B5B6B5B657
:1096E000B5B6B5B6B5B6B5B6B5B6B5B6B5B6B5B622
:1096F000B5B6B5B6B5B6B5B6B5B6B5B6B5B6B5B612
:10970000B5B6B5B6B5B6B5B6B5B6B5B6B5B6B5B601
:10971000B5B6B5B6B5B6B5B6B5B6B5B694B2B5B616
:10972000B5B6B5B6B5B6B5B6B5B6B5B6B5B6B5B6E1
:10973000B5B6B5B6B5B6B5B6B5B6B5B6B5B6B5B6D1
:10974000B5B6B5B6B5B6B5B6B5B6B5B6B5B6B5B6C1
:10975000B5B6FFFFFFFFFFFFFFFFFFFFFFFFFFFFAC
:10976000FFFFFFFFFFFFFFFFFFFFFFFFFFFFFFFF09
:10977000FFFFFFFFFFFFFFFFFFFFFFFFFFFFFFFFF9
:10978000FFFFFFFFFFFFFFFFFFFFFFFFFFFFFFFFE9
:10979000FFFFE71CC638FFFFFFFFFFFFFFFFFFFFD4
:1097A000FFFFFFFFFFFFFFFFFFFFFFFFFFFFFFFFC9
:1097B000FFFFFFFFFFFFFFFFFFFFFFFFFFFFFFFFB9
:1097C000FFFFFFFFFFFFFFFFFFFFFFFFFFFFFFFFA9
:1097D000FFFFFFFFFFFFFFFFB5B6FFFFFFFFFFFF2C
:1097E000FFFFFFFFFFFFFFFFFFFFFFFFFFFFFFFF89
:1097F000FFFFFFFFFFFFFFFFFFFFFFFFFFFFFFFF79
:10980000FFFFFFFFFFFFFFFFFFFFFFFFFFFFFFFF68
:10981000FFFFFFFFFFFFFFFFFFFFFFFFB5B6FFFFEB
:10982000FFFFFFFFFFFFFFFFFFFFFFFFFFFFFFFF48
:10983000FFFFFFFFFFFFFFFFFFFFFFFFFFFFFFFF38
:10984000FFFFFFFFFFFFFFFFFFFFFFFFFFFFFFFF28
:10985000BDD7FFFFFFFFFFFFFFFFFFFFFFFFFFFF82
:10986000FFFFFFFFFFFFFFFFFFFFFFFFFFFFFFFF08
:10987000FFFFFFFFFFFFFFFFFFFFFFFFFFFFFFFFF8
:10988000FFFFFFFFFFFFFFFFFFFFFFFFFFFFFFFFE8
:10989000FFFFE71CC638FFFFFFFFFFFFFFFFFFFFD3
:1098A000FFFFFFFFFFFFFFFFFFFFFFFFFFFFFFFFC8
:1098B000FFFFFFFFFFFFFFFFFFFFFFFFFFFFFFFFB8
:1098C000FFFFFFFFFFFFFFFFFFFFFFFFFFFFFFFFA8
:1098D000FFFFFFFFFFFFFFFFB5B6FFFFFFFFFFFF2B
:1098E000FFFFFFFFFFFFFFFFFFFFFFFFFFFFFFFF88
:1098F000FFFFFFFFFFFFFFFFFFFFFFFFFFFFFFFF78
:10990000FFFFFFFFFFFFFFFFFFFFFFFFFFFFFFFF67
:10991000FFFFFFFFFFFFFFFFFFFFFFFFB5B6FFFFEA
:10992000FFFFFFFFFFFFFFFFFFFFFFFFFFFFFF7DC9
:10993000FFFFFFFFFFFFFFFFFFFFFFFFFFFFFFFF37
:10994000FFFFFFFFFFFFFFFFFFFFFFFFFFFFFFFF27
:10995000BDD7FFFFFFFFFFFFFFFFFFFFFFFFFFFF81
:10996000FFFFFFFFFFFFFFFFFFFFFFFFFFFFFFFF07
:10997000FFFFFFFFFFFFFFFFFFFFFFFFFFFFFFFFF7
:10998000FFFFFFFFFFFFFFFFFFFFFFFFFFFFFFFFE7
:10999000FFFFE71CC638FFFFFFFFFFFFFFFFFFFFD2
:1099A000FFFFFFFFFFFFFFFFFFFFFFFFFFFFFFFFC7
:1099B000FFFFFFFFFFFFFFFFFFFFFFFFFFFFFFFFB7
:1099C000FFFFFFFFFFFFFFFFFFFFFFFFFFFFFFFFA7
:1099D000FFFFFFFFFFFFFFFFB5B6FFFFFFFFFFFF2A
:1099E000FFFFFFFFFFFFFFFFFFFFFFFFFFFFFFFF87
:1099F000FFFFFFFFFFFFFFFFFFFFFFFFFFFFFFFF77
:109A0000FFFFFFFFFFFFFFFFFFFFFFFFFFFFFFFF66
:109A1000FFFFFFFFFFFFFFFFFFFFFFFFB5B6FFFFE9
:109A2000FFFFFFFFFFFFFFFFFF5CFF1CFF7DFCB0A0
:109A3000FBB0FF9EFF9EFEBAFFBFFEBAFD74FD3471
:109A4000FCD3FE18FE79FE58FB6EFEDDFFFFFFFF24
:109A5000BDD7FFFFFFFFFFFFFFFFFFFFFF7CFD34D0
:109A6000FF7EFFFFFFFFFFFFFFFFFFFFFFFFFFFF87
:109A7000FFFFFFFFFFFFFFFFFFFFFFFFFFFFFFFFF6
:109A8000FFFFFFFFFFFFFFFFFFFFFFFFFFFFFFFFE6
:109A9000FFFFE71CC638FFFFFFFFFFFFFFFFFFDEF2
:109AA000FDB5FCD3FF3DFFFFFFFFFFFFFFFFFFFF03
:109AB000FFFFFFFFFFFFFFFFFFFFFFFFFFFFFFFFB6
:109AC000FFFFFFFFFFFFFFFFFFFFFFFFFFFFFFFFA6
:109AD000FFFFFFFFFFFFFFFFB5B6FFFFFFFFFFFF29
:109AE000FFFFFFFFFE58FC92FE59FFFFFFFFFFFF45
:109AF000FFFFFFFFFFFFFFFFFFFFFFFFFFFFFFFF76
:109B0000FFFFFFFFFFFFFFFFFFFFFFFFFFFFFFFF65
:109B1000FFFFFFFFFFFFFFFFFFFFFFFFB5B6FFFFE8
:109B2000FFFFFFFFFFFFFFFFFB2AFD37FEFBFC707F
:109B3000FD97FE17FD75FA69FEDDFFDFFB6BFCF696
:109B4000FFDFFDD5FD56FFBDFA29FF7FFFFFFFFFB9
:109B5000BDD7FFFFFFFFFFFFFFFFFE57F9A4F8008F
:109B6000FE7CFFFFFFFFFFFFFFFFFFFFFFFFFFFF89
:109B7000FFFFFFFFFFFFFFFFFFFFFFFFFFFFFFFFF5
:109B8000FFFFFFFFFFFFFFFFFFFFFFFFFFFFFFFFE5
:109B9000FFFFE71CC638FFFFFFFFFFFFFFFFFD11C0
:109BA000FB2DF9A4F905FF5EFFFFFFFFFFFFFFFF9D
:109BB000FFFFFFFFFFFFFFFFFFFFFFFFFFFFFFFFB5
:109BC000FFFFFFFFFFFFFFFFFFFFFFFFFFFFFFFFA5
:109BD000FFFFFFFFFFFFFFFFB5B6FFFFFFFFFFFF28
:109BE000FFFFFE98FAABFB6CF841FDD9FFFFFFFFCA
:109BF000FFFFFFFFFFFFFFFFFFFFFFFFFFFFFFFF75
:109C0000FFFFFFFFFFFFFFFFFFFFFFFFFFFFFFFF64
:109C1000FFFFFFFFFFFFFFFFFFFFFFFFB5B6FFFFE7
:109C2000FFFFFFFFFFFFFFDEFD96FF3DFD75FB6DB4
:109C3000FC72FAABFCD4FF7EFFFFFFFFFAEBFE5A8B
:109C4000FF9EFC6FFCB5FFBCFAABFFFFFFFFFFFF01
:109C5000BDD7FFFFFFFFFFFFFFFFFEDAFDB5F8A155
:109C6000FE7CFFFFFFFFFFFFFFFFFFFFFFFFFFFF88
:109C7000FFFFFFFFFFFFFFFFFFFFFFFFFFFFFFFFF4
:109C8000FFFFFFFFFFFFFFFFFFFFFFFFFFFFFFFFE4
:109C9000FFFFE71CC638FFFFFFFFFFFFFFFFFF9E30
